{
  "_format": "hh-sol-artifact-1",
  "contractName": "ETHStakingRewards",
  "sourceName": "contracts/ETHStakingRewards.sol",
  "abi": [
    {
      "inputs": [
        {
          "internalType": "address",
          "name": "_rewardToken",
          "type": "address"
        },
        {
          "internalType": "uint256",
          "name": "_rewardRate",
          "type": "uint256"
        },
        {
          "internalType": "uint256",
          "name": "_minimumStakingTime",
          "type": "uint256"
        }
      ],
      "stateMutability": "nonpayable",
      "type": "constructor"
    },
    {
      "inputs": [
        {
          "internalType": "address",
          "name": "owner",
          "type": "address"
        }
      ],
      "name": "OwnableInvalidOwner",
      "type": "error"
    },
    {
      "inputs": [
        {
          "internalType": "address",
          "name": "account",
          "type": "address"
        }
      ],
      "name": "OwnableUnauthorizedAccount",
      "type": "error"
    },
    {
      "inputs": [],
      "name": "ReentrancyGuardReentrantCall",
      "type": "error"
    },
    {
      "inputs": [
        {
          "internalType": "address",
          "name": "token",
          "type": "address"
        }
      ],
      "name": "SafeERC20FailedOperation",
      "type": "error"
    },
    {
      "anonymous": false,
      "inputs": [
        {
          "indexed": true,
          "internalType": "address",
          "name": "previousOwner",
          "type": "address"
        },
        {
          "indexed": true,
          "internalType": "address",
          "name": "newOwner",
          "type": "address"
        }
      ],
      "name": "OwnershipTransferred",
      "type": "event"
    },
    {
      "anonymous": false,
      "inputs": [
        {
          "indexed": true,
          "internalType": "address",
          "name": "user",
          "type": "address"
        },
        {
          "indexed": false,
          "internalType": "uint256",
          "name": "reward",
          "type": "uint256"
        }
      ],
      "name": "RewardClaimed",
      "type": "event"
    },
    {
      "anonymous": false,
      "inputs": [
        {
          "indexed": false,
          "internalType": "uint256",
          "name": "newRate",
          "type": "uint256"
        }
      ],
      "name": "RewardRateUpdated",
      "type": "event"
    },
    {
      "anonymous": false,
      "inputs": [
        {
          "indexed": true,
          "internalType": "address",
          "name": "user",
          "type": "address"
        },
        {
          "indexed": false,
          "internalType": "uint256",
          "name": "amount",
          "type": "uint256"
        },
        {
          "indexed": false,
          "internalType": "uint256",
          "name": "timestamp",
          "type": "uint256"
        }
      ],
      "name": "Staked",
      "type": "event"
    },
    {
      "anonymous": false,
      "inputs": [
        {
          "indexed": true,
          "internalType": "address",
          "name": "user",
          "type": "address"
        },
        {
          "indexed": false,
          "internalType": "uint256",
          "name": "amount",
          "type": "uint256"
        },
        {
          "indexed": false,
          "internalType": "uint256",
          "name": "reward",
          "type": "uint256"
        }
      ],
      "name": "Unstaked",
      "type": "event"
    },
    {
      "inputs": [
        {
          "internalType": "address",
          "name": "user",
          "type": "address"
        }
      ],
      "name": "calculateReward",
      "outputs": [
        {
          "internalType": "uint256",
          "name": "",
          "type": "uint256"
        }
      ],
      "stateMutability": "view",
      "type": "function"
    },
    {
      "inputs": [
        {
          "internalType": "address",
          "name": "user",
          "type": "address"
        }
      ],
      "name": "canUnstake",
      "outputs": [
        {
          "internalType": "bool",
          "name": "",
          "type": "bool"
        }
      ],
      "stateMutability": "view",
      "type": "function"
    },
    {
      "inputs": [],
      "name": "claimReward",
      "outputs": [],
      "stateMutability": "nonpayable",
      "type": "function"
    },
    {
      "inputs": [
        {
          "internalType": "uint256",
          "name": "amount",
          "type": "uint256"
        }
      ],
      "name": "depositRewardTokens",
      "outputs": [],
      "stateMutability": "nonpayable",
      "type": "function"
    },
    {
      "inputs": [],
      "name": "emergencyWithdrawETH",
      "outputs": [],
      "stateMutability": "nonpayable",
      "type": "function"
    },
    {
      "inputs": [],
      "name": "getETHBalance",
      "outputs": [
        {
          "internalType": "uint256",
          "name": "",
          "type": "uint256"
        }
      ],
      "stateMutability": "view",
      "type": "function"
    },
    {
      "inputs": [],
      "name": "getRewardTokenBalance",
      "outputs": [
        {
          "internalType": "uint256",
          "name": "",
          "type": "uint256"
        }
      ],
      "stateMutability": "view",
      "type": "function"
    },
    {
      "inputs": [
        {
          "internalType": "address",
          "name": "user",
          "type": "address"
        }
      ],
      "name": "getStakeInfo",
      "outputs": [
        {
          "internalType": "uint256",
          "name": "amount",
          "type": "uint256"
        },
        {
          "internalType": "uint256",
          "name": "stakingTime",
          "type": "uint256"
        },
        {
          "internalType": "uint256",
          "name": "pendingReward",
          "type": "uint256"
        }
      ],
      "stateMutability": "view",
      "type": "function"
    },
    {
      "inputs": [],
      "name": "minimumStakingTime",
      "outputs": [
        {
          "internalType": "uint256",
          "name": "",
          "type": "uint256"
        }
      ],
      "stateMutability": "view",
      "type": "function"
    },
    {
      "inputs": [],
      "name": "owner",
      "outputs": [
        {
          "internalType": "address",
          "name": "",
          "type": "address"
        }
      ],
      "stateMutability": "view",
      "type": "function"
    },
    {
      "inputs": [],
      "name": "renounceOwnership",
      "outputs": [],
      "stateMutability": "nonpayable",
      "type": "function"
    },
    {
      "inputs": [],
      "name": "rewardRate",
      "outputs": [
        {
          "internalType": "uint256",
          "name": "",
          "type": "uint256"
        }
      ],
      "stateMutability": "view",
      "type": "function"
    },
    {
      "inputs": [],
      "name": "rewardToken",
      "outputs": [
        {
          "internalType": "contract IERC20",
          "name": "",
          "type": "address"
        }
      ],
      "stateMutability": "view",
      "type": "function"
    },
    {
      "inputs": [
        {
          "internalType": "uint256",
          "name": "_newMinimumTime",
          "type": "uint256"
        }
      ],
      "name": "setMinimumStakingTime",
      "outputs": [],
      "stateMutability": "nonpayable",
      "type": "function"
    },
    {
      "inputs": [
        {
          "internalType": "uint256",
          "name": "_newRate",
          "type": "uint256"
        }
      ],
      "name": "setRewardRate",
      "outputs": [],
      "stateMutability": "nonpayable",
      "type": "function"
    },
    {
      "inputs": [],
      "name": "stake",
      "outputs": [],
      "stateMutability": "payable",
      "type": "function"
    },
    {
      "inputs": [
        {
          "internalType": "address",
          "name": "",
          "type": "address"
        }
      ],
      "name": "stakes",
      "outputs": [
        {
          "internalType": "uint256",
          "name": "amount",
          "type": "uint256"
        },
        {
          "internalType": "uint256",
          "name": "timestamp",
          "type": "uint256"
        },
        {
          "internalType": "uint256",
          "name": "lastClaimTime",
          "type": "uint256"
        }
      ],
      "stateMutability": "view",
      "type": "function"
    },
    {
      "inputs": [],
      "name": "totalStaked",
      "outputs": [
        {
          "internalType": "uint256",
          "name": "",
          "type": "uint256"
        }
      ],
      "stateMutability": "view",
      "type": "function"
    },
    {
      "inputs": [
        {
          "internalType": "address",
          "name": "newOwner",
          "type": "address"
        }
      ],
      "name": "transferOwnership",
      "outputs": [],
      "stateMutability": "nonpayable",
      "type": "function"
    },
    {
      "inputs": [],
      "name": "unstake",
      "outputs": [],
      "stateMutability": "nonpayable",
      "type": "function"
    },
    {
      "inputs": [
        {
          "internalType": "uint256",
          "name": "amount",
          "type": "uint256"
        }
      ],
      "name": "withdrawRewardTokens",
      "outputs": [],
      "stateMutability": "nonpayable",
      "type": "function"
    },
    {
      "stateMutability": "payable",
      "type": "receive"
    }
  ],
  "bytecode": "0x60806040523480156200001157600080fd5b5060405162001b2038038062001b20833981810160405281019062000037919062000287565b33600073ffffffffffffffffffffffffffffffffffffffff168173ffffffffffffffffffffffffffffffffffffffff1603620000ad5760006040517f1e4fbdf7000000000000000000000000000000000000000000000000000000008152600401620000a49190620002f4565b60405180910390fd5b620000be816200011e60201b60201c565b506001808190555082600260006101000a81548173ffffffffffffffffffffffffffffffffffffffff021916908373ffffffffffffffffffffffffffffffffffffffff160217905550816005819055508060068190555050505062000311565b60008060009054906101000a900473ffffffffffffffffffffffffffffffffffffffff169050816000806101000a81548173ffffffffffffffffffffffffffffffffffffffff021916908373ffffffffffffffffffffffffffffffffffffffff1602179055508173ffffffffffffffffffffffffffffffffffffffff168173ffffffffffffffffffffffffffffffffffffffff167f8be0079c531659141344cd1fd0a4f28419497f9722a3daafe3b4186f6b6457e060405160405180910390a35050565b600080fd5b600073ffffffffffffffffffffffffffffffffffffffff82169050919050565b60006200021482620001e7565b9050919050565b620002268162000207565b81146200023257600080fd5b50565b60008151905062000246816200021b565b92915050565b6000819050919050565b62000261816200024c565b81146200026d57600080fd5b50565b600081519050620002818162000256565b92915050565b600080600060608486031215620002a357620002a2620001e2565b5b6000620002b38682870162000235565b9350506020620002c68682870162000270565b9250506040620002d98682870162000270565b9150509250925092565b620002ee8162000207565b82525050565b60006020820190506200030b6000830184620002e3565b92915050565b6117ff80620003216000396000f3fe60806040526004361061012e5760003560e01c80638da5cb5b116100ab578063c34531531161006f578063c34531531461036e578063c5ab62f3146103ad578063cb43b2dd146103d8578063d82e396214610401578063f2fde38b1461043e578063f7c618c11461046757610135565b80638da5cb5b146102af57806393ce5343146102da5780639e447fc614610305578063a75c49db1461032e578063b88a802f1461035757610135565b8063715018a6116100f2578063715018a6146101ee5780637b0a47ee14610205578063817b1cd214610230578063845360171461025b57806385f4498b1461027257610135565b806316934fc41461013a57806316c621e0146101795780632def6620146101a25780633a4b66f1146101b95780636e947298146101c357610135565b3661013557005b600080fd5b34801561014657600080fd5b50610161600480360381019061015c91906112a5565b610492565b604051610170939291906112eb565b60405180910390f35b34801561018557600080fd5b506101a0600480360381019061019b919061134e565b6104bc565b005b3480156101ae57600080fd5b506101b7610516565b005b6101c1610744565b005b3480156101cf57600080fd5b506101d8610889565b6040516101e5919061137b565b60405180910390f35b3480156101fa57600080fd5b50610203610891565b005b34801561021157600080fd5b5061021a6108a5565b604051610227919061137b565b60405180910390f35b34801561023c57600080fd5b506102456108ab565b604051610252919061137b565b60405180910390f35b34801561026757600080fd5b506102706108b1565b005b34801561027e57600080fd5b50610299600480360381019061029491906112a5565b610909565b6040516102a691906113b1565b60405180910390f35b3480156102bb57600080fd5b506102c46109aa565b6040516102d191906113db565b60405180910390f35b3480156102e657600080fd5b506102ef6109d3565b6040516102fc919061137b565b60405180910390f35b34801561031157600080fd5b5061032c6004803603810190610327919061134e565b610a76565b005b34801561033a57600080fd5b506103556004803603810190610350919061134e565b610abf565b005b34801561036357600080fd5b5061036c610ad1565b005b34801561037a57600080fd5b50610395600480360381019061039091906112a5565b610b70565b6040516103a4939291906112eb565b60405180910390f35b3480156103b957600080fd5b506103c2610c20565b6040516103cf919061137b565b60405180910390f35b3480156103e457600080fd5b506103ff60048036038101906103fa919061134e565b610c26565b005b34801561040d57600080fd5b50610428600480360381019061042391906112a5565b610c7e565b604051610435919061137b565b60405180910390f35b34801561044a57600080fd5b50610465600480360381019061046091906112a5565b610d55565b005b34801561047357600080fd5b5061047c610ddb565b6040516104899190611455565b60405180910390f35b60036020528060005260406000206000915090508060000154908060010154908060020154905083565b6104c4610e01565b610513333083600260009054906101000a900473ffffffffffffffffffffffffffffffffffffffff1673ffffffffffffffffffffffffffffffffffffffff16610e88909392919063ffffffff16565b50565b61051e610f0a565b6000600360003373ffffffffffffffffffffffffffffffffffffffff1673ffffffffffffffffffffffffffffffffffffffff168152602001908152602001600020905060008160000154116105a8576040517f08c379a000000000000000000000000000000000000000000000000000000000815260040161059f906114cd565b60405180910390fd5b60065481600101546105ba919061151c565b4210156105fc576040517f08c379a00000000000000000000000000000000000000000000000000000000081526004016105f39061159c565b60405180910390fd5b600081600001549050600061061033610c7e565b9050600083600001819055506000836001018190555060008360020181905550816004600082825461064291906115bc565b925050819055503373ffffffffffffffffffffffffffffffffffffffff166108fc839081150290604051600060405180830381858888f1935050505015801561068f573d6000803e3d6000fd5b5060008111156106e7576106e63382600260009054906101000a900473ffffffffffffffffffffffffffffffffffffffff1673ffffffffffffffffffffffffffffffffffffffff16610f509092919063ffffffff16565b5b3373ffffffffffffffffffffffffffffffffffffffff167f7fc4727e062e336010f2c282598ef5f14facb3de68cf8195c2f23e1454b2b74e838360405161072f9291906115f0565b60405180910390a2505050610742610fcf565b565b61074c610f0a565b6000341161078f576040517f08c379a000000000000000000000000000000000000000000000000000000000815260040161078690611665565b60405180910390fd5b6000600360003373ffffffffffffffffffffffffffffffffffffffff1673ffffffffffffffffffffffffffffffffffffffff16815260200190815260200160002090506000816000015411156107e8576107e7610fd8565b5b348160000160008282546107fc919061151c565b925050819055504281600101819055504281600201819055503460046000828254610827919061151c565b925050819055503373ffffffffffffffffffffffffffffffffffffffff167f1449c6dd7851abc30abf37f57715f492010519147cc2652fbc38202c18a6ee9034426040516108769291906115f0565b60405180910390a250610887610fcf565b565b600047905090565b610899610e01565b6108a360006110d4565b565b60055481565b60045481565b6108b9610e01565b6108c16109aa565b73ffffffffffffffffffffffffffffffffffffffff166108fc479081150290604051600060405180830381858888f19350505050158015610906573d6000803e3d6000fd5b50565b600080600360008473ffffffffffffffffffffffffffffffffffffffff1673ffffffffffffffffffffffffffffffffffffffff16815260200190815260200160002060405180606001604052908160008201548152602001600182015481526020016002820154815250509050600081600001510361098c5760009150506109a5565b600654816020015161099e919061151c565b4210159150505b919050565b60008060009054906101000a900473ffffffffffffffffffffffffffffffffffffffff16905090565b6000600260009054906101000a900473ffffffffffffffffffffffffffffffffffffffff1673ffffffffffffffffffffffffffffffffffffffff166370a08231306040518263ffffffff1660e01b8152600401610a3091906113db565b602060405180830381865afa158015610a4d573d6000803e3d6000fd5b505050506040513d601f19601f82011682018060405250810190610a71919061169a565b905090565b610a7e610e01565b806005819055507f41d466ebd06fb97e7786086ac8b69b7eb7da798592036251291d34e9791cde0181604051610ab4919061137b565b60405180910390a150565b610ac7610e01565b8060068190555050565b610ad9610f0a565b6000600360003373ffffffffffffffffffffffffffffffffffffffff1673ffffffffffffffffffffffffffffffffffffffff1681526020019081526020016000206000015411610b5e576040517f08c379a0000000000000000000000000000000000000000000000000000000008152600401610b55906114cd565b60405180910390fd5b610b66610fd8565b610b6e610fcf565b565b600080600080600360008673ffffffffffffffffffffffffffffffffffffffff1673ffffffffffffffffffffffffffffffffffffffff16815260200190815260200160002060405180606001604052908160008201548152602001600182015481526020016002820154815250509050806000015193506000816000015111610bfa576000610c0b565b806020015142610c0a91906115bc565b5b9250610c1685610c7e565b9150509193909250565b60065481565b610c2e610e01565b610c7b3382600260009054906101000a900473ffffffffffffffffffffffffffffffffffffffff1673ffffffffffffffffffffffffffffffffffffffff16610f509092919063ffffffff16565b50565b600080600360008473ffffffffffffffffffffffffffffffffffffffff1673ffffffffffffffffffffffffffffffffffffffff168152602001908152602001600020604051806060016040529081600082015481526020016001820154815260200160028201548152505090506000816000015103610d01576000915050610d50565b6000816040015142610d1391906115bc565b90506000670de0b6b3a7640000826005548560000151610d3391906116c7565b610d3d91906116c7565b610d479190611738565b90508093505050505b919050565b610d5d610e01565b600073ffffffffffffffffffffffffffffffffffffffff168173ffffffffffffffffffffffffffffffffffffffff1603610dcf5760006040517f1e4fbdf7000000000000000000000000000000000000000000000000000000008152600401610dc691906113db565b60405180910390fd5b610dd8816110d4565b50565b600260009054906101000a900473ffffffffffffffffffffffffffffffffffffffff1681565b610e09611198565b73ffffffffffffffffffffffffffffffffffffffff16610e276109aa565b73ffffffffffffffffffffffffffffffffffffffff1614610e8657610e4a611198565b6040517f118cdaa7000000000000000000000000000000000000000000000000000000008152600401610e7d91906113db565b60405180910390fd5b565b610f04848573ffffffffffffffffffffffffffffffffffffffff166323b872dd868686604051602401610ebd93929190611769565b604051602081830303815290604052915060e01b6020820180517bffffffffffffffffffffffffffffffffffffffffffffffffffffffff83818316178352505050506111a0565b50505050565b600260015403610f46576040517f3ee5aeb500000000000000000000000000000000000000000000000000000000815260040160405180910390fd5b6002600181905550565b610fca838473ffffffffffffffffffffffffffffffffffffffff1663a9059cbb8585604051602401610f839291906117a0565b604051602081830303815290604052915060e01b6020820180517bffffffffffffffffffffffffffffffffffffffffffffffffffffffff83818316178352505050506111a0565b505050565b60018081905550565b6000610fe333610c7e565b905060008111156110d15742600360003373ffffffffffffffffffffffffffffffffffffffff1673ffffffffffffffffffffffffffffffffffffffff168152602001908152602001600020600201819055506110823382600260009054906101000a900473ffffffffffffffffffffffffffffffffffffffff1673ffffffffffffffffffffffffffffffffffffffff16610f509092919063ffffffff16565b3373ffffffffffffffffffffffffffffffffffffffff167f106f923f993c2149d49b4255ff723acafa1f2d94393f561d3eda32ae348f7241826040516110c8919061137b565b60405180910390a25b50565b60008060009054906101000a900473ffffffffffffffffffffffffffffffffffffffff169050816000806101000a81548173ffffffffffffffffffffffffffffffffffffffff021916908373ffffffffffffffffffffffffffffffffffffffff1602179055508173ffffffffffffffffffffffffffffffffffffffff168173ffffffffffffffffffffffffffffffffffffffff167f8be0079c531659141344cd1fd0a4f28419497f9722a3daafe3b4186f6b6457e060405160405180910390a35050565b600033905090565b600080602060008451602086016000885af1806111c3576040513d6000823e3d81fd5b3d9250600051915050600082146111de5760018114156111fa565b60008473ffffffffffffffffffffffffffffffffffffffff163b145b1561123c57836040517f5274afe700000000000000000000000000000000000000000000000000000000815260040161123391906113db565b60405180910390fd5b50505050565b600080fd5b600073ffffffffffffffffffffffffffffffffffffffff82169050919050565b600061127282611247565b9050919050565b61128281611267565b811461128d57600080fd5b50565b60008135905061129f81611279565b92915050565b6000602082840312156112bb576112ba611242565b5b60006112c984828501611290565b91505092915050565b6000819050919050565b6112e5816112d2565b82525050565b600060608201905061130060008301866112dc565b61130d60208301856112dc565b61131a60408301846112dc565b949350505050565b61132b816112d2565b811461133657600080fd5b50565b60008135905061134881611322565b92915050565b60006020828403121561136457611363611242565b5b600061137284828501611339565b91505092915050565b600060208201905061139060008301846112dc565b92915050565b60008115159050919050565b6113ab81611396565b82525050565b60006020820190506113c660008301846113a2565b92915050565b6113d581611267565b82525050565b60006020820190506113f060008301846113cc565b92915050565b6000819050919050565b600061141b61141661141184611247565b6113f6565b611247565b9050919050565b600061142d82611400565b9050919050565b600061143f82611422565b9050919050565b61144f81611434565b82525050565b600060208201905061146a6000830184611446565b92915050565b600082825260208201905092915050565b7f4e6f207374616b656420616d6f756e7400000000000000000000000000000000600082015250565b60006114b7601083611470565b91506114c282611481565b602082019050919050565b600060208201905081810360008301526114e6816114aa565b9050919050565b7f4e487b7100000000000000000000000000000000000000000000000000000000600052601160045260246000fd5b6000611527826112d2565b9150611532836112d2565b925082820190508082111561154a576115496114ed565b5b92915050565b7f4d696e696d756d207374616b696e672074696d65206e6f742072656163686564600082015250565b6000611586602083611470565b915061159182611550565b602082019050919050565b600060208201905081810360008301526115b581611579565b9050919050565b60006115c7826112d2565b91506115d2836112d2565b92508282039050818111156115ea576115e96114ed565b5b92915050565b600060408201905061160560008301856112dc565b61161260208301846112dc565b9392505050565b7f416d6f756e74206d7573742062652067726561746572207468616e2030000000600082015250565b600061164f601d83611470565b915061165a82611619565b602082019050919050565b6000602082019050818103600083015261167e81611642565b9050919050565b60008151905061169481611322565b92915050565b6000602082840312156116b0576116af611242565b5b60006116be84828501611685565b91505092915050565b60006116d2826112d2565b91506116dd836112d2565b92508282026116eb816112d2565b91508282048414831517611702576117016114ed565b5b5092915050565b7f4e487b7100000000000000000000000000000000000000000000000000000000600052601260045260246000fd5b6000611743826112d2565b915061174e836112d2565b92508261175e5761175d611709565b5b828204905092915050565b600060608201905061177e60008301866113cc565b61178b60208301856113cc565b61179860408301846112dc565b949350505050565b60006040820190506117b560008301856113cc565b6117c260208301846112dc565b939250505056fea26469706673582212200c69302d9613eb3e967a445fd1efc0f48642575549164deb9971bd1ad1b628b264736f6c63430008140033",
  "linkReferences": {},
  "deployedLinkReferences": {}
}